:020000023000CC
:10FC000001C022C1112484B7882369F0982F9A700B
:10FC1000923049F081FF02C097EF94BF282E80E018
:10FC2000FED00C94000085E08093810082E08093F8
:10FC3000C00088E18093C10086E08093C20080E12B
:10FC40008093C4008EE0EBD0279A86E020E33CEF5F
:10FC500091E0309385002093840096BBB09BFECF4B
:10FC60001F9AA8954091C00047FD02C0815089F7B6
:10FC700043E0D42E55E0C52E61E1762EC4D0813408
:10FC800071F4C1D0C82FD1D082E0C23821F088E011
:10FC9000C13809F083E0B0D080E1AED0EFCF82343C
:10FCA00019F484E1CAD0F8CF853411F485E0FACF95
:10FCB000853581F4A8D0082FA6D0182F87FF07C05C
:10FCC0008BB781608BBF000F111FAFD0E5CF8BB713
:10FCD0008E7FF8CF863581F496D08D3459F493D049
:10FCE000CBB791D0C170880F8C2B8BBF81E0A5D092
:10FCF00080E0D1CF83E0FBCF843609F04BC083D0C6
:10FD0000C82FD0E0DC2FCC277ED0C82B7CD0682E2B
:10FD10005E018EEFB81AE12C22E0F22E4701EFEFE0
:10FD20008E1A9E0A70D0F701808374018A149B0496
:10FD3000A9F77BD0F5E46F1651F1F801D7BEE8952D
:10FD400007B600FCFDCFF801A0E0B2E081E02D9104
:10FD50003D91090187BFE895112432962297B9F7A2
:10FD6000F801C7BEE89507B600FCFDCF77BEE89561
:10FD700093CF6081C701800F911F7ED08FEFE81A6B
:10FD8000F80AF701FE5FCE15DF0599F785CFF12C54
:10FD9000E12CF7CF843709F536D0C82FD0E0DC2F1F
:10FDA000CC2731D0C82B2FD0B82E3FD07801F5E426
:10FDB000BF120CC0C00FD11FC70156D01DD08FEF8E
:10FDC000E81AF80ACE15DF05B9F766CFF701879173
:10FDD0007F0112D02197D1F75FCF853739F425D035
:10FDE0008EE10AD088E908D081E055CF813509F04D
:10FDF0006CCF88E014D069CF9091C00095FFFCCF04
:10FE00008093C60008958091C00087FFFCCF809149
:10FE1000C00084FD01C0A8958091C6000895E0E669
:10FE2000F0E098E1908380830895EDDF803219F04F
:10FE300088E0F5DFFFCF84E1DFCFCF93C82FE3DF8A
:10FE4000C150E9F7CF91F1CFFC010A0167BFE895F6
:10FE5000112407B600FCFDCF667029F0452B19F47C
:10FE600081E187BFE8950895F999FECF92BD81BDE4
:10FE7000F89A992780B50895262FF999FECF1FBAD1
:10FE800092BD81BD20BD0FB6F894FA9AF99A0FBEC3
:10FE900001960895FF56657273696F6E3D382E3274
:10FEA000004465766963653D61746D6567613235EF
:10FEB000363000465F4350553D31363030303030BB
:10FEC000304C00424947424F4F543D310042756922
:10FED0006C743A4E6F7620203220323032313A3212
:10FEE000333A31353A343800554152543D300042AE
:10FEF0004155445F524154453D3131353230300037
:10FF00004C45443D4237004C45445F5354415254A4
:0BFF10005F464C41534845533D330011
:02FFFE000208F7
:040000033000FC00CD
:00000001FF
