:10000000C3C0000004C1000002C1000000C1000024
:10001000FEC00000FCC00000FAC00000F8C00000F4
:10002000F6C00000F4C00000F2C00000D4C7000019
:1000300097C70000ECC00000EAC000005BC70000EA
:10004000E6C00000E4C00000E2C00000E0C0000024
:10005000DEC00000DCC00000DAC000000C94C7085D
:100060000C948D08D4C00000D2C00000D0C00000A5
:10007000CEC0000009026500020100C03209040080
:10008000000001010000092401000109000101092B
:1000900004010002010300000724010001410006E1
:1000A00024020101000624020202000924030103C4
:1000B00001020100092403020401010100090501F4
:1000C00002400005000005250101010905820240EA
:1000D00000050000052501010309023E00020100A0
:1000E000C0320904000001020201000524001001D1
:1000F000042402060524060001070582030800FF08
:1001000009040100020A0000000705040240000182
:1001100007058302400001120110010200000809D6
:1001200012703001000102DC0110034D0065006710
:1001300000610043004D004400000034034D0065A1
:10014000006700610043004D004400200028007754
:1001500000770077002E006D006500670061006386
:10016000006D0064002E0063006F006D0029000028
:100170000004030904F000203C000020FFF7F07D9C
:100180004D434C01FFF7F80811241FBECFEFD2E01A
:10019000DEBFCDBF04B603FE18C080919A029091D5
:1001A0009B02A0919C02B0919D028A3C9C4AA24471
:1001B000BC4D59F410929A0210929B0210929C022C
:1001C00010929D02E0E0F0E7099511E0A0E0B1E0B7
:1001D000EAE5F8E102C005900D92A835B107D9F71C
:1001E00022E0A8E5B1E001C01D92AA39B207E1F70B
:1001F00010E0C4ECD0E004C02197FE010E94250C61
:10020000C33CD107C9F70E9427090C942B0CF8CEE8
:100210009B01AC019695879577956795605C7D4BC2
:10022000804F9F4F0E94030C215031093093CD0025
:100230002093CC0086E08093CA001092C80088E129
:100240008093C900539A5A9A08951092E20010922E
:10025000E100E0EEF0E0808181608083E8EDF0E095
:1002600080818F77808319BCE3E6F0E08081816034
:10027000808310926A0208952091E4003091E50095
:1002800085E69091EC0090FF06C09091E80090FF09
:1002900006C080E008959091E80092FDFACF9EB3E9
:1002A000992391F0953091F09091EB0095FD10C05D
:1002B0004091E4005091E5002417350711F3815077
:1002C0009A01F9F684E0089582E0089583E00895A4
:1002D00081E008958EB3843079F480911D018F7090
:1002E0008093E9008091F200882341F08091E8003A
:1002F0008E778093E800C0CF82E0089580E0089573
:10030000EF92FF920F931F93CF937B018EB3C2E0C6
:10031000843051F580911D018F708093E900ACDF2E
:10032000C82F811121C004E010E08091E80085FD14
:100330000AC08091E8008E778093E8009DDF8823D3
:10034000A1F3C82F11C0F70181917F018093F100C3
:100350000150110951F78091E80085FD05C0809199
:10036000E8008E778093E8008C2FCF911F910F913A
:10037000FF90EF90089580916E0287FF11C08091E9
:10038000E80082FF06C08091E8008B778093E80048
:1003900003C08EB38111F3CF08958EB38823E1F3A8
:1003A0008091E80080FFF9CF8091E8008E77EECF52
:1003B000982F953020F08093E90081E00895909384
:1003C000E900242F762F50E0981731F07091EC005F
:1003D0002091ED005091F00021FD02C09F5FE9CF18
:1003E0003091EB003E7F3093EB003091ED003D7F8C
:1003F0003093ED003091EB0031603093EB0070935F
:10040000EC002093ED005093F0002091EE0027FDCA
:10041000E5CF80E00895FC012081222311F1948131
:10042000A181B2816381822F8F708530E0F442E038
:10043000923008F046E0E8E0F0E090E0EA17FB07D1
:1004400060F09295907F492B6295660F660F607CF5
:10045000221F2227221F622BABCF9F5FEE0FFF1FB1
:10046000EDCF81E0089580E00895CF92DF92EF9282
:10047000FF921F93CF93DF93CDB7DEB7E0970FB610
:10048000F894DEBF0FBECDBF90E3E8E2F1E0DE01FD
:10049000119601900D929A95E1F7E82FF0E0EE0F9A
:1004A000FF1FEE0FFF1FA1E0B0E0AC0FBD1FAE0FAE
:1004B000BF1FC0908F02D0909002E0909102F09008
:1004C00092024D915D916D917C91C416D506E60620
:1004D000F70699F1F89490E12FB7F8943091C8009D
:1004E00035FFFCCF1092CE004091950250919602BC
:1004F00050939402409393022FBF915069F7182FA5
:1005000081E090E08C0F9D1FE80FF91FC080D18023
:10051000E280F380C701B6017BDE88E98093C900E1
:10052000C0928F02D0929002E0929102F0929202D9
:10053000123088F4109299027894E0960FB6F894ED
:10054000DEBF0FBECDBFDF91CF911F91FF90EF9027
:10055000DF90CF90089581E08093990210929402E9
:100560001092930286E990E0909396028093950210
:10057000E3CFCF93DF93EC018A81E881F981E80F23
:10058000F11DE491EF3F81F0E61310C08F5F8A8385
:100590009C8189130CC0ED81FE818B8109951A82A3
:1005A00081E0DF91CF9108956B83F0CF1A8280E0D4
:1005B000F8CFCF93C82F84B7877F84BF0FB6F89446
:1005C000A89580916000886180936000109260001F
:1005D0000FBE80E830E020E00FB6F8948093610011
:1005E000209361000FBEC23009F482C0C330A1F471
:1005F00060E875E280E090E00BDE88E98093C90056
:1006000080E895E2A0E0B0E080938F0290939002A2
:10061000A0939102B0939202C0931B01809163005A
:100620008E7F8093630081E080936A021092E200E3
:100630001092E1008091D8008F778093D80080914C
:10064000D80080688093D8008091D8008F7D8093F7
:10065000D80084E089BD86E089BD09B400FEFDCFE5
:100660001EBA10926D0210926C0210926B0242E060
:1006700060E080E09DDE8091E1008E7F8093E1006C
:100680008091E20081608093E2008091E2008860C6
:100690008093E2008091E0008E7F8093E00084E010
:1006A00085BD80911B01833011F45F9A579A2FB753
:1006B000F89488E591E09093D9018093D8019093C4
:1006C000DB018093DA011092DC012FBF2FB7F89481
:1006D0008DED91E090935E0280935D0290936002B5
:1006E00080935F02109261022FBF7894CF9108959A
:1006F00062E17AE780E090E08BDD88E98093C900D1
:1007000082E19AE7A0E0B0E07FCF3FB7F894DC0148
:10071000AE57BF4FED91FC9111972191AC0140581C
:100720005F4FE417F50759F0ED93FC93FC01EC578C
:10073000FF4F9081915090833FBF822F08958D93FA
:100740009C93F4CF4FB7F894FC01E058FF4FA08181
:10075000B1816C93A081B1819D012F5F3F4F2E1716
:100760003F0751F031832083FC01EC57FF4F80811C
:100770008F5F80834FBF089512969C938E9311973D
:10078000F3CF80919702909198028F3F980729F0BC
:100790000196909398028093970280919902882302
:1007A00091F08091930290919402009769F46EEF1A
:1007B00088E591E0C7DF8091950290919602909331
:1007C00094028093930208950197F9CFCF92DF921C
:1007D000EF92FF921F93CF93DF93CDB7DEB7AA9727
:1007E0000FB6F894DEBF0FBECDBFEEE6F2E080910B
:1007F000F100819322E0E637F207C9F780911B01EF
:100800008330A9F48091E80083FF11C0209100019A
:1008100080917202909173022817190641F4809119
:100820006F02813259F1E8F4803209F462C080919C
:10083000E80083FF2EC180916E0290916F029A3082
:1008400008F027C1E92FF0E0E95DFB4FFEC71C056A
:100850004205490542054905A305C3054905DF06CB
:10086000EC06823209F4CFC0833209F780916E0220
:100870008132E9F68091E800877F37C080916E026F
:10088000813AA9F68091E800877F8093E800809103
:10089000E80080FFFCCF8091140190911501A09198
:1008A0001601B09117018093F100492F5A2F6B2F39
:1008B00077274093F100AD01662777274093F10039
:1008C0008B2F9927AA27BB278093F10080911801CD
:1008D0008093F100809119018093F10080911A01B9
:1008E0008093F1008091E8008E778093E80043DDEB
:1008F0009ECF80916E02813209F099CF8091E800FD
:10090000877F8093E8008091E80082FF74C0309177
:10091000F1002091F1009091F1008091F10030936D
:100920001401209315019093160180931701809173
:10093000F100809318018091F1008093190180915A
:10094000F10080931A018091E8008B778093E80092
:1009500012DD8091190110E3813021F010E0823026
:1009600009F410E280911801823009F41860809136
:100970001A01873009F443C0883009F442C0863038
:1009800009F412601092C9001092C8001092CA00B7
:10099000C0901401D0901501E0901601F09017015D
:1009A00020E130E0C11481EED806E104F10479F0D1
:1009B000C701B601969587957795679560587B47EF
:1009C000814E9F4FA70196011ED7215031093093C8
:1009D000CD002093CC001093CA0080E0C114A1EE9A
:1009E000DA06E104F10409F082E08093C80088E9A6
:1009F0008093C9001CCF8EB3811185CF18CF1460AE
:100A0000C1CF1660BFCF80916E02813209F00FCF47
:100A10008091E800877F8093E800ADDC80917002D0
:100A200090917102809310019093110180FF02C098
:100A30005F98FDCE5F9AFBCE803889F0823849F509
:100A4000809172028F70853020F58093E90080914B
:100A5000EB0085FB882780F91092E90006C08091A1
:100A60006B0290916C02911182609091E800977FE7
:100A70009093E8008093F1001092F1008091E800DB
:100A80008E7731C0282F2D7F21F48823F1F082301A
:100A900071F18091E80083FF0AC08091E800877FB0
:100AA0008093E8008091EB0080628093EB00AA962F
:100AB0000FB6F894DEBF0FBECDBFDF91CF911F916F
:100AC000FF90EF90DF90CF90089580917002813079
:100AD00001F7933009F080E080936C021092E900F6
:100AE0008091E800877F8093E80045DCD2CF809139
:100AF00070028111F3CF809172028F702FEF280F57
:100B0000243038F68093E9002091EB0020FFE6CFF7
:100B1000933031F48091EB0080628093EB00DECF64
:100B20009091EB0090619093EB0021E030E001C0E8
:100B3000220F8A95EAF72093EA001092EA0080914A
:100B4000EB008860EACF8111A4CF109170021F776B
:100B50008091E3008078812B8093E3008091E8000E
:100B6000877F8093E80007DC8091E80080FFFCCF5E
:100B70008091E30080688093E30083E0111101C05D
:100B800082E08EBB86CF8058823008F082CF809181
:100B90007002909171028C3DB3E09B0709F078C020
:100BA00083E08A838AE289834FB7F894DE01139643
:100BB00020E03EE051E2E32FF0E050935700E49153
:100BC00020FF03C0E295EF703F5FEF708E2F90E043
:100BD000EA30C0F0C7968D939D932F5F243159F76B
:100BE0004FBF8091E800877F8093E8008091740276
:100BF000909175028A32910508F047C040E0FE01ED
:100C0000319625C0C096E7CF2EB3222389F1253037
:100C100079F12091E80023FD2BC02091E80022FD0E
:100C20001AC02091E80020FF12C02091F20030E0AD
:100C3000009719F02830310508F141E028303105DE
:100C400009F040E02091E8002E772093E80000971B
:100C5000D9F64111D9CF8091E80082FD09C08EB349
:100C6000882331F0853021F08091E80083FFF3CFB5
:100C70008091E8008B778093E8000BCF41914093FF
:100C8000F10001972F5F3F4FD3CF8AE290E0B6CFBC
:100C9000292F33272230310561F023303105C9F186
:100CA0002130310509F0F5CE82E190E0E7E1F1E095
:100CB0000CC080911B01823009F44EC0833009F0D2
:100CC000E8CE8EE390E0E9EDF0E02091E800277FA8
:100CD0002093E800209174023091750282179307E7
:100CE00008F49C0140E02115310509F03AC041119A
:100CF00038C08091E80082FDBBCF8EB3882309F411
:100D0000B7CF853009F4B4CF8091E80083FFF1CFED
:100D1000AFCF992781309105B9F058F0029709F0CB
:100D2000B8CEE9E2F1E0E4918E2F90E0E9E2F1E063
:100D300007C0E1E7F1E0E4918E2F90E0E1E7F1E018
:100D4000009709F4A6CEC1CFEBE3F1E0E4918E2F3A
:100D500090E0EBE3F1E0F4CF85E690E0E4E7F0E04B
:100D6000B4CF8EB3882309F483CF853009F480CFC4
:100D70008091E80083FD7CCF8091E80082FDB9CFAF
:100D80008091E80080FFAFCF8091F20090E02115C4
:100D9000310519F08830910550F041E0089709F0CD
:100DA00040E08091E8008E778093E8009CCF4491EA
:100DB0004093F1003196215031090196E8CF8038F7
:100DC00009F067CE8091E800877F8093E8008091EA
:100DD0006D028093F10052CE81115BCE10917002B2
:100DE000123008F056CE8091E800877F8093E800AB
:100DF00010936D02C0DA112339F184E08EBB80912B
:100E00001B01823039F1833009F043CEE0E1F1E09B
:100E10009BE0DF011D929A95E9F792E0909304011F
:100E20009093090180930E0181E091E0F4DA882328
:100E300009F42FCE86E091E0EEDA882309F429CE7A
:100E40008BE091E0E8DA25CE8091E30087FDD5CFF5
:100E500081E0D4CF10922701809320018093250157
:100E60008DE191E0D8DA882309F413CE82E291E093
:100E7000E9CFCF93C82F843008F03AC0811122C047
:100E8000E4D9F8948FEF99EF0197F1F700C00000D3
:100E9000CF5FC038B9F78AEC9CEAA2E4BCED80933E
:100EA0009A0290939B02A0939C02B0939D0288E1CA
:100EB0009CE00FB6F894A895809360000FBE9093C5
:100EC0006000FFCF1092C9001092C8001092CA00B3
:100ED0001092CD001092CC0053985A988091E00067
:100EE00081608093E000F894B0D98C2FCF9161CBD2
:100EF000CF9108951F920F920FB60F9211242F9346
:100F00003F934F935F936F937F938F939F93AF9391
:100F1000BF93EF93FF938091760290917702A09117
:100F20007802B09179020196A11DB11D80937602DD
:100F300090937702A0937802B093790222DCFF911C
:100F4000EF91BF91AF919F918F917F916F915F9141
:100F50004F913F912F910F900FBE0F901F901895BA
:100F60001F920F920FB60F9211242F933F934F931E
:100F70005F936F937F938F939F93AF93BF93CF9321
:100F8000EF93FF93C091E900CF708091EC00109235
:100F9000E9008091F000877F8093F000789416DC60
:100FA0001092E9008091F00088608093F000C09377
:100FB000E900FF91EF91CF91BF91AF919F918F91F8
:100FC0007F916F915F914F913F912F910F900FBE45
:100FD0000F901F9018951F920F920FB60F92112429
:100FE0002F933F934F935F936F937F938F939F9331
:100FF000AF93BF93EF93FF938091E10082FF09C00D
:101000008091E20082FF05C08091E1008B7F809398
:10101000E1008091E10080FF15C08091E20080FF37
:1010200011C08091E2008E7F8093E2008091E20007
:1010300080618093E2008091D80080628093D80024
:1010400019BC1EBA8091E10084FF25C08091E200A6
:1010500084FF21C084E089BD86E089BD09B400FE1B
:10106000FDCF8091D8008F7D8093D8008091E100E2
:101070008F7E8093E1008091E2008F7E8093E2007A
:101080008091E20081608093E20080916D0288236C
:10109000E1F184E08EBB8091E10083FF25C0809167
:1010A000E20083FF21C08091E100877F8093E1000F
:1010B00082E08EBB10926D028091E1008E7F809362
:1010C000E1008091E2008E7F8093E2008091E20057
:1010D00080618093E20042E060E080E069D9809125
:1010E000F00088608093F000FF91EF91BF91AF9185
:1010F0009F918F917F916F915F914F913F912F9130
:101100000F900FBE0F901F9018958091E30087FD00
:1011100002C081E0BFCF83E0BDCF1F920F920FB618
:101120000F9211242F933F934F935F936F937F936D
:101130008F939F93AF93BF93EF93FF939FB7F894D1
:101140008091DC019FBF882329F088E591E0DDDAFA
:101150008093CE009FB7F8948091DC019FBF8111EE
:1011600005C08091C9008F7D8093C900FF91EF91E8
:10117000BF91AF919F918F917F916F915F914F91AF
:101180003F912F910F900FBE0F901F9018951F92B7
:101190000F920FB60F9211242F933F934F935F93AB
:1011A0006F937F938F939F93AF93BF93EF93FF932F
:1011B0006091CE008EB3843051F49FB7F894809143
:1011C00061029FBF803819F08DED91E0BBDAFF918D
:1011D000EF91BF91AF919F918F917F916F915F91AF
:1011E0004F913F912F910F900FBE0F901F90189528
:1011F000EFE8F2E0128617821682118610861582B9
:101200001482E8E8F2E0128213824EE751E0518343
:10121000408328E0248389E397E096838583E1E88F
:10122000F2E0128213825183408324839683858364
:10123000EAE7F2E01282138285E791E091838083EE
:1012400089E0848385E392E0968385830895CF9334
:10125000DF93CDB7DEB728970FB6F894DEBF0FBE89
:10126000CDBF1092810010928200109285001092E2
:10127000840089EF90E090938900809388008091AA
:1012800081008860809381008091810083608093D9
:10129000810080916F00826080936F0017B818B84A
:1012A00087B1806A87B9479A88B1846188B983E039
:1012B00080D9F4E0AF2EBB24B394E2E0DE2E5524B7
:1012C0005A948EB38430E9F780911B01823009F47F
:1012D000ECC0833009F0B0C09FB7F8948091DC0176
:1012E0009FBF8038A9F18EB3843091F580911401AD
:1012F00090911501A0911601B0911701892B8A2BAD
:101300008B2B31F1809106018F708093E9008091E1
:10131000E80082FF1DC08091F2006FEF7FEF88230D
:1013200019F06091F10070E08091F200811105C028
:101330008091E8008B778093E8006F3F760741F05B
:1013400088E591E0FFD98091C90080628093C9004F
:101350008FB7F894109161028FBF1123D1F1809162
:1013600001018F708093E9008091E80080FF31C017
:10137000103408F01FE3115060F18EB3843049F54A
:101380008091140190911501A0911601B09117015F
:10139000892B8A2B8B2BE9F0E0915F02F0916002A0
:1013A0000081809101018F708093E9008091E800B5
:1013B00085FF06C00093F1008DED91E0A6D9DBCF4B
:1013C0008091E8008E778093E8000E943C0188239A
:1013D00089F38EB3843081F58091140190911501C9
:1013E000A0911601B0911701892B8A2B8B2B21F12B
:1013F000809101018F708093E9009091E80090FF47
:101400001BC09EB39430C1F48093E9008091F20038
:10141000882391F09091E8008091E8008E77809386
:10142000E80095FD09C00E943C01811105C0809132
:10143000E8008E778093E8008EB3882309F441CFCB
:101440001091E9001F708091EC0080FDDAC180E00E
:10145000182B1092E9008091E80083FDB7D91F7026
:101460001093E9002ACF8091F100F70181937F0169
:1014700001501109A9F541C002E07E01F6E0EF0E2E
:10148000F11C10E0F701C1907F016C2D88E892E01B
:1014900070D86C2D88E591E055D91F5F0113F2CF0C
:1014A0008091C90080628093C9008EB3843009F0B6
:1014B00048C0809122018F708093E9008091E800FC
:1014C00082FF3FC08091E80085FF3BC00E943C0145
:1014D000811113C004E010E07E01E5E0EE0EF11C86
:1014E0008091E80085FDBFCF8091E8008B778093E5
:1014F000E8000E943C01882399F38091E80085FD73
:1015000005C08091E8008B778093E800ED81EF7053
:10151000E250EE3050F6F0E0E157F54F96C13C0A4C
:101520009D0A9D0A9F0A3C0A9D0A9D0A9D0A9D0AE2
:101530009D0A3C0A3C0A9D0A9F0A03E09ECF01E0F7
:101540009CCF8FB7F894C09061028FBF80911D012E
:101550008F708093E900CC2009F441C18091E800AC
:1015600080FF3DC1FCE3FC1510F47CE3C72E06E6CA
:1015700012E085E0982E97E0892E26E0722E30EF5B
:10158000632E4BE0442E5CE0352E6EE0262ECA948E
:101590008FEFC81609F423C18DED91E0B6D8E82E7F
:1015A000E7EFE817D8F41092980210929702FEEF36
:1015B0008F1769F38FE08983EA821B821C82BE0148
:1015C0006F5F7F4F8CE191E00E9480018CE191E0A0
:1015D0000E946A018E010F5F1F4FD9CF87FFD7C0CE
:1015E0005092650210929802109297028FEE8E151B
:1015F00008F464C0109264028E2D807F803B09F451
:1016000052C008F042C0803909F449C0803A09F458
:1016100048C0803829F488E0F8018083D0926502C0
:10162000F12C109262028091650287FD0CC010922D
:101630006402F801E18212821382B0926202811187
:1016400002C0FF24F394809164028823D1F01092A9
:101650009802109297026E2D81E892E00E94B902E2
:101660006E2D8AE792E00E94B90280916202F80131
:10167000E80FF11DE1828F5F833009F49FC08093F2
:101680006202FF2009F483CF9FC0803D79F0803E45
:1016900091F0803C29F68DE0F801808309C089E053
:1016A000BBCF8AE0B9CFF8014082B8CFF8013082D1
:1016B000B0926502B5CFF8012082B0CFF2EFEF16FD
:1016C000D1F1FE1578F080EFE816D1F1E1EFEE16DA
:1016D000A1F1F801908210926402109263021092BC
:1016E00065029ECFF3EFEF1641F187EFE812F1CFDD
:1016F000F0906402FF2009F494CF67EF81E892E054
:101700000E94B902811198CE67EF8AE792E00E94A9
:10171000B90210926402909163028091620299234F
:10172000F1F08130A1F4F8017082618287EF828349
:101730001382F92E76CF83E06FCFF801D082B8CF35
:10174000F801A082B0926402B092630269CF823045
:1017500081F7F8018082618287EF8383EACF81116C
:1017600007C0F801908287EF81831282138259CFDC
:10177000813029F4F801708287EF8283F7CF8230BD
:1017800009F04FCFF801808287EF83834ACF8091A1
:10179000650218168CF490916202F801E90FF11DB0
:1017A000E1829F5F90936202815080936502FF24E3
:1017B000F394882309F447CFF12C45CF10926202AD
:1017C000F801A0821092630266E672E08CE191E07B
:1017D0000E9480018CE191E00E946A01D8CE8EB314
:1017E000843009F029CE80911D018F708093E9002B
:1017F0008091E80080FF20CE8CE191E00E946A0198
:101800001BCE80E825CEA1E21A2EAA1BBB1BFD0130
:101810000DC0AA1FBB1FEE1FFF1FA217B307E407CF
:10182000F50720F0A21BB30BE40BF50B661F771F27
:10183000881F991F1A9469F7609570958095909507
:101840009B01AC01BD01CF010895EE0FFF1F059074
:0A185000F491E02D0994F894FFCF05
:10185A0000834000000104400000018208000001EA
:10186A0000000000000000000000000301824000A8
:10187A000001014000000100127A0000127A000003
:10188A0024F400007E96010048E801005A62020032
:10189A00FD2C030090D00300B4C40400895706004D
:0818AA0020A107006889090074
:00000001FF
